:020000040800F2
:1000000000800120A5750008F575000855600008FE
:100010005B60000861600008676000080000000085
:10002000000000000000000000000000A5320008F1
:10003000F5750008000000003F3300084F3300084A
:10004000F5750008F5750008F5750008F5750008E8
:10005000F5750008F5750008F5750008F5750008D8
:10006000F5750008F5750008F5750008F5750008C8
:10007000F5750008F5750008F5750008F5750008B8
:10008000F5750008F5750008F5750008000000001A
:10009000000000000000000000000000F5750008EE
:1000A000F5750008F5750008F5750008F575000888
:1000B000F5750008F5750008F5750008F575000878
:1000C000F5750008F5750008F5750008F575000868
:1000D000F5750008F5750008F575000800000000CA
:1000E000F5750008F5750008F575000800000000BA
:1000F000000000000000000000000000F57500088E
:1001000000000000F5750008F5750008F575000899
:1001100000000000000000000000000000000000DF
:10012000F5750008F5750008F5750008F575000807
:10013000F57500080000000000000000000000004D
:10014000000000000000000000000000F57500083D
:10015000F5750008F5750008F5750008F5750008D7
:10016000F5750008F57500080000000000000000AB
:10017000000000000000000000000000000000007F
:1001800000000000F57500080000000000000000FD
:10019000F57500080348044B834202D0034B03B1BA
:1001A00018477047580A0020580A00200000000035
:1001B0000548064B1B1AD90F01EBA301491002D0C9
:1001C000034B03B118477047580A0020580A002013
:1001D0000000000010B5064C237843B9FFF7DAFFA2
:1001E000044B13B10448AFF300800123237010BD0A
:1001F000600A002000000000B08A010808B5044B26
:100200001BB104490448AFF30080BDE80840CFE7C4
:1002100000000000640A0020B08A0108A3F5803ABB
:10022000704700BF154B002B08BF114B9D46FFF7D1
:10023000F5FF00218B460F461148124A121A0CF0A6
:100240008BFA0C4B002B00D098470B4B002B00D0A7
:1002500098470020002104000D000B4806F0A6FE80
:100260000EF0BCFE2000290004F0EAFC07F09EF826
:1002700000000800000000009D4B000800800120E5
:10028000600A002038310020610C01087047704777
:1002900013B50023144608460DF106020A49ADF8CD
:1002A00006300CF0ABFAC0B2012803BF074BBDF813
:1002B00006200749074908BF1A80204602B0BDE85A
:1002C000104010F077BA00BF5C6201089A0A002063
:1002D000606201086462010830B5C360039B03617A
:1002E000049B43610025059B0570C0E901128361F1
:1002F00030BD7047F0B589B0002304461546084666
:100300000DF1030254498DF803300CF077FA534B8A
:100310001B78002B40F097809DF803601E2E00F2A2
:1003200094804F4BF340DB0740F18F802670002E06
:1003300033D14C4F3B78002B2FD04B4932462846C7
:1003400006F0C2F94949A06801AA02F0ABFB3220CD
:1003500007F018F94549E06801AA02F017FC3220BD
:1003600007F010F94149206901AA02F077FE322016
:1003700007F008F93D49606901AA00F081F93220CF
:1003800007F000F93949A06901AA02F0F7FD3849E0
:1003900060683E7001AA02F02FF99DF803200F2A31
:1003A00001D01E2A4FD12F4E33780F2B34D02E4937
:1003B000284606F089F92F49606901AA00F080F902
:1003C0000F2333702C4B1B7823B92C49A06801AA4A
:1003D00002F068FB2A4B1B7823B92849E06801AA80
:1003E00002F0D4FB274B1B7823B92449206901AACA
:1003F00002F034FE244B1B7823B92049A06901AADE
:1004000002F0BCFD1949606901AA00F039F91F49E1
:10041000606801AA02F0F0F89DF803701E2F12D157
:1004200033781E2B0FD010493A46284606F04CF977
:1004300010496069377001AA00F042F914496068F8
:1004400001AA02F0D9F809B0F0BD1249284609B056
:10045000BDE8F04010F0AEB9DD6201087D0A002071
:1004600001800040830A00202B6D0108CC6E01083A
:10047000B365010871620108810A002077620108F2
:10048000800A00207F0A00207E0A0020B969010846
:10049000756201086462010810B5034B03600446ED
:1004A00002F062FE204610BD7875010810B50446C2
:1004B000FFF7F2FF2046402106F0B0FF204610BDB6
:1004C00030B590F82830013B9BB00446032B1BD875
:1004D000DFE803F0021C2432406A216B03681B68CA
:1004E0009847236B294A642101A806F0FEF8E569C4
:1004F00001A80CF0C5F82B6802461B6901A9284623
:100500009847002384F828301BB030BD006A616B27
:1005100003681B689847636B1D4AE4E7006A616BD8
:1005200003681B689847606A03689B689847194985
:1005300001A810F03FF9DAE7C18D828D438D0A449E
:10054000934220DB406A036800211B689847206AB9
:10055000036800211B68984794F83830E06900254B
:1005600084F828503BB903680B491B690F221BB064
:10057000BDE830401847036808491B6912229847B4
:1005800084F83850C0E70B444385BDE77962010821
:100590008762010895620108A2620108B162010840
:1005A00038B50446154602F0D1FD0A4B2360049B82
:1005B000E361059B2362069B6362002384F8283075
:1005C000C4E90C336385A385E58584F8383020467B
:1005D00038BD00BF7875010837B504461546084692
:1005E00001AA0E490CF00AF9012814D10C4B1B7812
:1005F0001E2B09D184F82800606A019903685B68A2
:100600009847206303B030BD0649284603B0BDE8D3
:10061000304010F0CFB80449F7E700BF2B6D010858
:10062000830A0020C36201086462010837B50446EA
:100630001546084601AA0E490CF0E0F8012815D12C
:100640000C4B1B781E2B0AD1206A0199022384F8D7
:10065000283003685B689847606303B030BD064983
:10066000284603B0BDE8304010F0A4B80349F7E7CE
:100670002B6D0108830A0020C3620108646201082F
:1006800037B504461546084601AA0B490CF0B6F8E2
:1006900001280AD1206A0199032384F828300368CD
:1006A0005B689847606303B030BD0449284603B0D7
:1006B000BDE8304010F07EB82B6D0108646201087F
:1006C00030B587B00DF10F030093044605AB084623
:1006D0001546204904AA0CF091F81F4B1B781E2BDD
:1006E00006D01E49284607B0BDE8304010F062B879
:1006F000C0B29DF80F10A185032829D1049A02F5F4
:10070000FA73B3F57A7F23D8059B03F1E800B0F5BF
:10071000E87F1DD800912846114905F0D5FF002338
:1007200063859DF80F30206A059903EB830303EB83
:1007300083039B00A385042384F8283003681B6887
:100740009847606A049903681B68984707B030BDF2
:100750000449C7E7D7620108830A0020C362010881
:10076000E2620108EB62010830B587B00DF10F03BA
:100770000093044605AB08461546234904AA0CF02D
:100780003DF8224B1B781E2B06D02149284607B086
:10079000BDE8304010F00EB8C0B29DF80F30A38510
:1007A00003282ED1049A02F5FA72B2F57A7F28D87E
:1007B000059901F58872B2F5087F22D803EB83030F
:1007C00003EB83039B00206AA385042384F828306D
:1007D0000368002262851B689847606A0499036871
:1007E0001B689847D4E908320A49B3F90430B2F9D2
:1007F0000420284605F068FF012384F8383007B04C
:1008000030BD0549C2E700BFD7620108830A002056
:10081000C3620108E5620108EB62010873B5044692
:10082000154600230DF1070208460B498DF80730E5
:100830000BF0E4FF206A0368DB6898470646206AED
:1008400003689B689847054903463246284605F0E9
:100850003BFF02B070BD00BFDD620108E562010828
:1008600013B50023144608460DF1070205498DF81B
:1008700007300BF0C3FF0449204602B0BDE810402A
:100880000FF098BFDD62010877620108F7B5374DB8
:10089000C46828600026ADF804600DF1030201234E
:1008A0000721407A8DF802608DF80360A047044666
:1008B00028680DF102020769407A31460123B847E2
:1008C000044428689DF80230037001230669407AC9
:1008D0000DF102021946B047E4B2044428689DF8BD
:1008E0000230066943710DF1020201230221407AB0
:1008F000B047E4B2044428689DF802300669837169
:100900000DF1020201230321407AB047E4B204440E
:1009100028689DF802300669C3710DF102020123B7
:100920000621407AB047E4B2044428689DF80230BA
:100930000669037201AA02230421407AB047E4B297
:1009400004442868BDF80430066943800DF10202B2
:1009500001230721407AB047E4B22B689DF80220BA
:100960001A71204440B203B0F0BD00BFB80A0020A5
:100970001346074A30B4146834B1E5680A46AC46F9
:100980000146607A30BC60476FF07E0030BC704733
:10099000B80A002073B5124D0446286800238DF86C
:1009A0000730B0B10669407A01230DF10702072133
:1009B000B04788B928688DF80740C668407A012397
:1009C0000DF107020721B04708B92B681C7102B06E
:1009D00070BD6FF07E00FAE74FF0FF30F7E700BF21
:1009E000B80A002037B5114C236805460020ADF841
:1009F0000400C3B11B795BB9206802230469407A03
:100A000001AA1A21A047BDF804302B8003B030BDE5
:100A1000FFF7C0FF0028EFD023681B79002BEBD035
:100A20004FF0FF30F2E76FF07E00EFE7B80A0020EA
:100A300037B5114C236805460020ADF80400C3B15A
:100A40001B795BB9206802230469407A01AA1C2142
:100A5000A047BDF804302B8003B030BDFFF79AFFEC
:100A60000028EFD023681B79002BEBD04FF0FF302C
:100A7000F2E76FF07E00EFE7B80A002037B5114CBF
:100A8000236805460020ADF80400C3B11B795BB9AB
:100A9000206802230469407A01AA1E21A047BDF8FC
:100AA00004302B8003B030BDFFF774FF0028EFD077
:100AB00023681B79002BEBD04FF0FF30F2E76FF08B
:100AC0007E00EFE7B80A002037B5114C23680546D1
:100AD0000020ADF80400C3B11B795BB92068022384
:100AE0000469407A01AA2821A047BDF804302B8070
:100AF00003B030BDFFF74EFF0028EFD023681B790D
:100B0000002BEBD04FF0FF30F2E76FF07E00EFE705
:100B1000B80A002037B5114C236805460020ADF80F
:100B20000400C3B11B795BB9206802230469407AD1
:100B300001AA2A21A047BDF804302B8003B030BDA4
:100B4000FFF728FF0028EFD023681B79002BEBD09C
:100B50004FF0FF30F2E76FF07E00EFE7B80A0020B9
:100B600037B5114C236805460020ADF80400C3B129
:100B70001B795BB9206802230469407A01AA2C2101
:100B8000A047BDF804302B8003B030BDFFF702FF53
:100B90000028EFD023681B79002BEBD04FF0FF30FB
:100BA000F2E76FF07E00EFE7B80A002037B5134C8C
:100BB0002368054600208DF80700DBB11B7973B967
:100BC000206801230469407A0DF107023B21A04708
:100BD0009DF80730C3F380032B7003B030BDFFF7DF
:100BE000D9FE0028ECD023681B79002BE8D04FF009
:100BF000FF30F2E76FF07E00EFE700BFB80A002099
:100C000037B5134C2368054600208DF80700DBB18B
:100C10001B7973B9206801230469407A0DF107023A
:100C20003D21A0479DF8073003F00F032B7003B060
:100C300030BDFFF7AFFE0028ECD023681B79002BF6
:100C4000E8D04FF0FF30F2E76FF07E00EFE700BF33
:100C5000B80A002073B52F4D00238DF806308DF8AB
:100C600007302B680646002B4ED00DF10700FFF72A
:100C7000C7FF00284BD12B681C69587A9DF80730B4
:100C800003BB01230DF106023D21A0470446B0B984
:100C90009DF80630286823F00F0306F00F061E4368
:100CA0008DF80660C468407A01230DF106023D21EB
:100CB000A0472B6804465B694FF41670984720469E
:100CC00002B070BD01230DF106023D21A04704468C
:100CD00080B99DF80630012223F00F030DF10601C3
:100CE0003D208DF80630FFF743FE2B6804465B6914
:100CF00014209847002EE2D0286801230469407A26
:100D00000DF106023D21C0E76FF07E04D7E74FF0FA
:100D1000FF34D4E7B80A002073B5224E00238DF8C3
:100D200006308DF8073033680546002B37D00DF1BB
:100D30000700FFF765FF58B14FF0FF349DF807003B
:100D400018B1FFF787FF044464B2204602B070BDBB
:100D50009DF80730F3B9306801230469407A0DF13A
:100D600006023B21A04704460028E7D19DF8063043
:100D70003068AD0023F0040305F004052B43C4687C
:100D80008DF80630407A01230DF106023B21A04781
:100D90000446D3E7FFF75EFF0028CDD1DBE76FF015
:100DA0007E04D2E7B80A002073B5224E00238DF8E6
:100DB00006308DF8073033680546002B37D00DF12B
:100DC0000700FFF71DFF58B14FF0FF349DF80700F3
:100DD00018B1FFF73FFF044464B2204602B070BD73
:100DE0009DF80730F3B9306801230469407A0DF1AA
:100DF00006023E21A04704460028E7D19DF80630B0
:100E000005F0030523F0030343EA05008DF806000F
:100E100030680123C468407A0DF106023E21A047E4
:100E20000446D3E7FFF716FF0028CDD1DBE76FF0CC
:100E30007E04D2E7B80A00207047704710B54FF41F
:100E40008871044606F0EAFA204610BD0B6803607C
:100E50004B6843608B688360704710B48268016898
:100E60005410034601EB6200D20748BF0A595B6881
:100E70005DF8044B48BFD358184737B5044672B6DF
:100E8000FF25E06904F0D2FAA8B3D4F82431D4F8ED
:100E900028110133B3FBF5F2C2EB02229B1A8B42FD
:100EA00029D0E069036801225B690DF107019847C9
:100EB000D4F82431D4F828110133B3FBF5F2C2EB96
:100EC00002229B1A8B42DCD0D4F824319DF80720F3
:100ED000234483F82420D4F824310133B3FBF5F202
:100EE000C2EB02229B1AC4F82431D4F82C3101330E
:100EF000C4F82C31C5E762B603B030BD2DE9F04728
:100F0000D0F8282104460132D0F82401FF23B2FB97
:100F1000F3F1C1EB0121521A8242ADF5027D2AD0D4
:100F2000D4F82821D4F824010132B2FBF3F1C1EB4B
:100F30000121521A824222D0D4F828210132B2FB78
:100F4000F3F3C3EB0323D21AC4F82821D4F82831D1
:100F5000234493F82420D4F82C31232A03F1FF33BF
:100F60005FFA82F8C4F82C310BD184F8408204F285
:100F70004123C4F840330DF5027DBDE8F0874FF002
:100F80000008D4F8403304F550729342F3D0B8F11E
:100F90000A0F7FD113F8032C3B2A7BD113F8022CC4
:100FA0003B2A77D113F8013C0D2B73D104F510794E
:100FB0003C4912AB02AA48460BF020FC022867D13C
:100FC00044AB02A842930BF05BFB02AB0F2822AEAE
:100FD00003EB0005306007D90022314642A80AF031
:100FE000EBF93368429044932A4602A942980AF0EA
:100FF0001DFA3368429A43930021D15404F5527A82
:10100000D4F84C735546E7B9AA4508D005F110014C
:1010100042A80AF015FA35EA200528BF554642A82D
:101020000AF0F2F9AA4533D08022002130460BF0B5
:1010300093FB6B6B93B91C491C484FF4FD7205F090
:101040006DFC07F1100042A90AF0FAF9D7E9023263
:101050000028AABF3D4617461F46D4E71B68324604
:1010600012A905F12800984733788BB1104A0096F1
:1010700002AB4FF4807142A805F037FBE56942A846
:101080000BF0FEFA2B6802461B6942A928469847D6
:10109000C4F84093D4F8403383F80080D4F8403348
:1010A000013366E7006301085D63010868630108B6
:1010B00074630108C3680BB19B681847704738B563
:1010C000044604B938BDE068FFF7F9FF04F12800D1
:1010D000A568FFF7EFFF04F110000AF095F920462C
:1010E000382106F09BF92C46EBE7000010B5064BC3
:1010F00003600446D0F84C03FFF7E1FF204602F0FE
:1011000033F8204610BD00BFA075010810B5044695
:10111000FFF7ECFF20464FF4587106F07FF92046A8
:1011200010BD00F10803F7B50360D1E900630F2B90
:1011300004460D4606EB0307019306D9002201A9D8
:101140000AF03AF9019B2060A36020683A463146D4
:101150000AF062F92346019A53F8180B62600021E5
:101160008154102218460BF0F7FA6A6A62621AB1CB
:10117000526805F118019047204603B0F0BD2DE9F3
:10118000F041054638200E4606F034F905F110010D
:1011900004461030FFF7C5FF2B78E8682370002362
:1011A000C4E90233666018B12146FFF7E8FFE0604A
:1011B000AE6827464FF0000816B92046BDE8F0811A
:1011C000382006F017F906F1100105461030FFF738
:1011D000A8FF33782B70C5E90288BD606F60F068A6
:1011E00018B12946FFF7CBFFE860B6682F46E3E762
:1011F0002DE9FF410446164600230A220D46DFF87A
:10120000D08001F0A3FF2F4B2360E561FF22002572
:101210000021FE27C4F8208004F124000BF09CFA82
:10122000C4F82451FF22C4F828712946C4F82C516F
:10123000C4F8308104F59A700BF08EFA04F510733F
:10124000C4F834522946C4F838724FF48072C4F896
:101250003C5218460BF080FAC4F84C53C4F84003D3
:10126000B06884F8485304F55271C4E9D411C4F845
:101270005853A0B1FFF783FF03461A469B68002B23
:10128000FBD1C4F8502303461A46DB68002BFBD180
:101290007369C4F85423C4F85833C4F84C030A4B98
:1012A000E06903930022094B01936946029200947E
:1012B00004F0DEF86846FFF7FDFE204604B0BDE806
:1012C000F08100BFA0750108B07501087B0E000811
:1012D00090750108054BB1F5FA7FA8BF4FF4FA717C
:1012E00099420846B8BF1846704700BF0CFEFFFF82
:1012F000806B7047406B7047018E07EE901AF8EED6
:10130000677A083017EE901A03F084BF2DE9F04198
:1013100005461E46002383801C4B45F8083B0446C7
:101320001746284603F0D0FFC4E90D76069B184EF9
:10133000E362642740F2D3534FF0140823863A4601
:10134000314684F8328004F13C000DF0B7FC3A4697
:10135000F11904F1A0000DF0B1FC3A4606F1C80104
:1013600004F582700DF0AAFC3A4606F5967104F574
:10137000B4700DF0A3FC4146284603F058FF284600
:10138000218E03F06EFF2046BDE8F081C475010890
:101390007077010810B5044B044640F8083B03F091
:1013A000B1FF204610BD00BFC4750108324BF0B537
:1013B00000221846CD17D3E90076B94275EB060630
:1013C000144603F1080302F1010204DBD3E90076BD
:1013D0008F42AE4107DA0A2AEDD16FF40D74A142B3
:1013E000ACBF0924002400EBC40250F8343052682A
:1013F000C91A65EB0205A1FB013C01FB05F20CEBF0
:10140000420C1E4A660102EB441401FB0CFE925989
:101410006668A1FB030703FB05EEBE4400FB06F76D
:101420000EFB0277A2FB00021744D4E902625A4382
:101430000CFB0622A6FB03631A44801947EB020744
:10144000D4E9046201FB02F305FB0633A6FB01614C
:101450000B44D4E90621801943EB0703801843EBC2
:101460000103002B03DA064A801843F10003000D44
:1014700040EA0330F0BD00BF18770108D8750108B5
:10148000FFFF0F0010B5044641B9B0F93010A1803C
:1014900004F10800BDE8104003F0E3BEFFF786FF4B
:1014A00001B2F4E792296FF0A600A8BF922188420A
:1014B000B8BF08467047C06B7047806B704700002C
:1014C0002DE9F04105461E46002383801A4B45F85E
:1014D000083B04462846904603F0F6FE069BE3626E
:1014E000142384F83430154B93E80700C4E90E86C2
:1014F00040F2DC5704F14006276386E8070003F159
:101500000C0207CA04F14C0686E8070003F1180232
:1015100007CA04F15806243386E8070093E8070059
:1015200004F1640686E807002846394603F099FE70
:101530002046BDE8F08100BF08790108607A010803
:1015400010B5044B044640F8083B03F0DBFE204690
:1015500010BD00BF08790108314BF0B500221846D4
:10156000CD17D3E90076B94275EB0606144603F1B0
:10157000080302F1010204DBD3E900768F42AE4199
:1015800006DA082AEDD111F1960FCCBF072400240A
:1015900000EBC40250F834305268C91A65EB0205FA
:1015A000A1FB013C01FB05F20CEB420C1D4A66015C
:1015B00002EB441401FB0CFE92596668A1FB030781
:1015C00003FB05EEBE4400FB06F70EFB0277A2FB11
:1015D00000021744D4E902625A430CFB0622A6FB20
:1015E00003631A44801947EB0207D4E9046201FB44
:1015F00002F305FB0633A6FB01610B44D4E9062187
:10160000801943EB0703801843EB0103002B03DA37
:10161000054A801843F10003000D40EA0330F0BD95
:10162000187A010818790108FFFF0F0010B5044669
:10163000FFF792FF01B2A18004F10800BDE810405D
:1016400003F00FBE10B5034B0360044603F05AFFCE
:10165000204610BD787D0108A0F1E400F2E700BF4C
:1016600070B4846805686610034605EB6400E407FF
:1016700048BFAC595B6848BFE35870BC184770B4AA
:10168000846805686610034605EB6400E40748BFFC
:10169000AC595B6848BFE35870BC184770B48468A5
:1016A00005686610034605EB6400E40748BFAC59C3
:1016B0005B6848BFE35870BC184770B4846805681D
:1016C0006610034605EB6400E40748BFAC595B684D
:1016D00048BFE35870BC184770B48468056866104A
:1016E000034605EB6400E40748BFAC595B6848BF9C
:1016F000E35870BC184770B48468056866100346E8
:1017000005EB6400E40748BFAC595B6848BFE35889
:1017100070BC184770B4846805686610034605EB12
:101720006400E40748BFAC595B6848BFE35870BC2D
:101730001847CB68C3600BB15B6818477047F7B5B3
:101740000546382005F056FE044604F118032361CF
:10175000D5E900630F2B00F1100006EB030701939E
:1017600006D9002201A909F027FE019B2061A3618F
:1017700020693A46314609F04FFE019B22696361B8
:101780000021D15404F12803102218460AF0E4FF86
:1017900005F11801FFF7CDFF204603B0F0BD2DE99C
:1017A000F041054610300E46FFF7C9FF2B78037055
:1017B0000023C0E9023346600446E86818B12146B8
:1017C000FFF7EDFFE060AE6827464FF0000816B95E
:1017D0002046BDE8F08106F11000FFF7B0FF337836
:1017E0000370C0E90288B86047600546F06818B128
:1017F0002946FFF7D4FFE860B6682F46E7E738B51B
:10180000044604B938BDE068FFF7F9FF04F1280089
:10181000A568FFF74FFC04F1100009F0F5FD204624
:10182000382105F0FBFD2C46EBE710B50446806837
:10183000FFF7E5FF204610BD70B5144C144D154E52
:1018400015490422204604F05DF82946132220465B
:1018500004F058F831461322204604F053F80F499B
:101860001322204604F04EF831461322204604F09D
:1018700049F829461322204604F044F80849022278
:10188000204604F03FF8002070BD00BF6813002020
:1018900084630108986301087F630108AC63010851
:1018A0008163010838B5FFF7C7FF60B9064D074CE3
:1018B0002B7823B1C82005F065FE07F04BFA2046CF
:1018C00001F0E0FCF4E738BD7D0A0020C00A0020EA
:1018D000F8B50546064655F8044B8CB90D4F3868E7
:1018E00018B14FF0FF3102F0C9FB346824B9284623
:1018F00005F00AFE2C463560386808B102F0D6FBC8
:10190000AC4204D0044905488B2205F007F8204674
:10191000F8BD00BF281B00200F6401081E640108E9
:1019200008B50348FFF7D4FFBDE8084005F0F4BD53
:10193000982B002008B50348FFF7CAFFBDE8084010
:1019400005F006BE982B002038B50546064B45F835
:10195000043B0446FFF7E4FF284604F01FF8204646
:10196000FFF7E8FF204638BD987A010810B5044615
:10197000FFF7EAFF2046542105F050FD204610BD38
:1019800010B586B00446684680E80C0006A800E959
:101990000C00039110E90700034BE36084E80700A3
:1019A000204606B010BD00BFF07A010800F1080320
:1019B00073B5044603600D4611B9104809F0CCFC1C
:1019C00008460AF05DFE0F2805EB0006019007D9D6
:1019D000002201A9204609F0EFFC019B2060A360D2
:1019E00020683246294609F021FD019B2268636088
:1019F00000212046D15402B070BD00BF41640108EF
:101A000038B5102204460D4600210AF0A5FE2046F6
:101A10002946FFF78EFE204638BD37B504461546E9
:101A200001AAFFF7C3FF294604F11800FFF7E8FFFA
:101A3000204603B030BD08B509F002FDC00F08BD57
:101A40002DE9F0418D6804460F4690460E1D012099
:101A500045B908B3FB68B34211D1256066602046E2
:101A6000BDE8F08105F110014046FFF7E4FFD5E93C
:101A7000022300282E4614BF15461D46E8E73046CF
:101A800009F098FB0546414605F11000FFF7D3FF2A
:101A900020B100232360E1E73546F4E7C4E90050B4
:101AA000DDE700002DE9F04FC34CDFF8D483DFF809
:101AB000D493DFF8D4B3DFF8D4A3ADF5417D4FF470
:101AC000E1332046032202213EAD03F059FF2046B8
:101AD000BA4ABB4905F068FA1C22002128460AF0E0
:101AE0003BFE2F460521284603F0C0FF0FCF6E4670
:101AF0000FC697E80700002386E80700B14EB248FA
:101B0000B24F4FF4FA7200F0E3FDB149AB4AAE4870
:101B100005F04AFA002341F28832304600F056FDC3
:101B2000A64AAC49304605F03FFA0421AA4A2846A5
:101B300003F0C6F90023CDE900544FF47A72404611
:101B400001F004F82846FFF7FFFE9C4AA3494046EF
:101B500005F02AFA2121A04A284603F0B1F9CDE97F
:101B60000054002340F6B832484601F05BFA28469C
:101B7000FFF7EAFE9A49914A484605F015FA1923FB
:101B800018220094CDE9013296480023962200F0F5
:101B90002FFF8A4A9449934805F006FA00944FF4BF
:101BA000FA73924A13215846FFF7B0FB834A9049D3
:101BB000584605F0F9F90094FA236FF0F90215215F
:101BC0005046FFF77DFC8B497C4A504605F0ECF906
:101BD0000094CDE901AB0023DFF8B4A2DFF8B4B282
:101BE00001223846FEF7DCFC8349744A384605F08A
:101BF000DBF90094002341F28832504601F0AEF93F
:101C00006E4A7E49504605F0CFF94346CDE9017A48
:101C10003146744ACDF800905846FEF75DFB78498E
:101C2000664A584605F0C0F90023CDE90149CDE9DF
:101C30000386CDF800B06422724801F027F95F4AAC
:101C40007149704805F0B0F90F217048FEF71EFB8E
:101C50005A4A6F496D48002605F0A6F96D4B2B6076
:101C60006E6095E80C0039460AA8FFF789FE6A49BC
:101C70000AAA2846FFF7D1FE684B3AACC4E9003601
:101C8000394694E80C000EA8FFF77AFE64490EAAC4
:101C900048A8FFF7C2FE634BC4E90036394694E812
:101CA0000C0012A8FFF76CFE5F4912AA52A8FFF7BA
:101CB000B4FE5E4BC4E90036394694E80C0016A821
:101CC000FFF75EFE22465A495CA8FFF76FFE16A991
:101CD00062A8FFF795FE574BC4E90036394694E8F1
:101CE0000C001AA8FFF74CFE2246534966A8FFF7DE
:101CF0005DFE1AA96CA8FFF783FE504BC4E90036BD
:101D0000394694E80C001EA8FFF73AFE22464C49DB
:101D100070A8FFF74BFE1EA976A8FFF771FE494B8E
:101D2000C4E90036394694E80C0022A8FFF728FEE3
:101D30004549464F22AA7AA8FFF76FFE444B2993E4
:101D4000444B4549CDF89890224684A8CDE92736E2
:101D5000FFF72CFE26A98AA8FFF752FE3F4B2D93D2
:101D60003F4B4049CDF8A88022468EA8CDE92B36BE
:101D7000FFF71CFE2AA994A8FFF742FE3A4B3193C5
:101D8000184B2E93394B3A49224698A8CDE92F3665
:101D9000FFF70CFE2EA99EA8FFF732FE354B3593B8
:101DA000354B3649CDF8C8B02246A2A8CDE9333626
:101DB000FFF7FCFD70E000BF6813002098010020D1
:101DC00045160008E812002030130020100F0020F4
:101DD000A9260008A12000080000C07FC52C00082B
:101DE0000D31000890110020292700080CFEFFFF8C
:101DF000951300084115000899040008BD2E00083D
:101E0000F3020008900E0020F52C0008880E002038
:101E10008F020008D9050008736401082D06000828
:101E200079640108810600087F640108C106000882
:101E30008564010869070008896401081D08000815
:101E400092640108610800089E640108700E002079
:101E5000E47A01085D300008A4640108D87A01081A
:101E60008D2B0008AC640108CC7A0108A52A000873
:101E7000B4640108C07A0108F5020008B8640108DA
:101E800068120020F0110020C00F0020500F002029
:101E9000E80E0020C80E002032A9A8A8FFF7B0FD68
:101EA000664B3993664B3693664B67492246ACA81E
:101EB000CDE93736FFF77AFD36A9B2A8FFF7A0FDC6
:101EC000624BE360624B6349C4F800A0C4E9013689
:101ED00008AAB6A8FFF76AFD07F1040A2146BCA8C4
:101EE000FFF78EFDC7E903AA3E71BE607E614FF029
:101EF0000E0BA846BBF1010B71D1C0AE283E06F116
:101F00001800FFF7D7F8304609F07EFAAE42F5D157
:101F10002046FFF7CFF836A8FFF7CCF832A8FFF736
:101F2000C9F82EA8FFF7C6F82AA8FFF7C3F826A815
:101F3000FFF7C0F822A8FFF7BDF81EA8FFF7BAF810
:101F40001AA8FFF7B7F816A8FFF7B4F812A8FFF71A
:101F5000B1F8414C0EA8FFF7ADF80AA8FFF7AAF8B0
:101F60003E493F4A204605F01FF8A06800233FA9DC
:101F7000C5E903112B71AB606B6180B1FFF70FFCFA
:101F800003461A469B68002BFBD1EA6003461A46BB
:101F9000DB68002BFBD163692A616B61A8602A466C
:101FA00030493148FFF724F9A868FFF728FC2C4A8C
:101FB0002E492D4804F0F8FF2D4B2E492E48D3E929
:101FC0000023CDE90023092201F030F9244A2B49EE
:101FD00029480DF5417DBDE8F04F04F0E5BF7B6970
:101FE00033B13E69414606F11000FFF724FD10BBF6
:101FF0004246394608A8FFF723FD099EAEB1089B6B
:10200000B3B9564514D006F110014046FFF713FD51
:1020100081464046FFF793FB534601463246484609
:1020200009F0E2F87B6901337B6108F1280861E778
:102030004FF00109EDE7002EE3D1F6E7B47A01088D
:10204000880E002091020008BB640108A87A0108EC
:102050007D2F0008CB640108700E00202B180008AB
:102060009801002068130020100B0020ED100008DC
:10207000007B0108A0010020C00A0020E131000817
:1020800010B50446FFF7DEFA2046E82105F0C6F950
:10209000204610BDA0F1E400F2E7FFF703BD000009
:1020A00010B5054B044640F81C3B03F02BF92046C5
:1020B00001F05AF8204610BD107B010810B5044607
:1020C000FFF7EEFF2046482105F0A8F9204610BD95
:1020D000437E70B50446002B74D090F84430013B29
:1020E000032B6FD8DFE813F00400960104024C02C2
:1020F00090F840301C2B00F28381DFE813F01D00C4
:1021000042006400ED00640082008B00A7002901FA
:102110000101A700BA00C200D5006400ED00D5009F
:10212000DD00E500ED000101150115016400290144
:1021300029013D015101650190F8423093B904F144
:102140001C054FF4FD61284603F07EF84FF47D71C5
:10215000284603F086F8012384F84230002384F8EF
:1021600041302FE090F84130092B40F21F820021CE
:102170001C3003F076F8002384F8413084F84230B4
:102180001BE090F8422090F84130002A40F00E8287
:102190000B2B40F20B8204F11C054FF47D71284695
:1021A00003F052F84FF4FD71284603F05AF801236A
:1021B00084F84230002384F8413094F840300133F1
:1021C00084F8403070BD90F8422090F841305AB108
:1021D000092B40F2EB81002104F11C0003F041F8CF
:1021E000002384F84230E6E70B2B40F2DF8104F154
:1021F0001C0540F24751284603F026F840F2A3217F
:10220000D2E790F8422090F841300AB10B2BE0E77A
:10221000132B69E090F8425090F841300DB10E2B2D
:10222000D7E7182B40F2C28100F11C064FF4EF6192
:10223000304603F009F84FF46F71304603F011F89F
:10224000012384F8423084F84150B6E790F84220E8
:1022500090F84130002ABBD10B2B40F2A78104F14A
:102260001C0540F2BB31284602F0EEFF40F2DD11C2
:102270009AE790F8422090F84130002AC6D1132BFB
:102280006EE090F8425090F84130002DC7D1182BE5
:1022900040F28C8100F11C064FF4FD61304602F0E3
:1022A000D3FF4FF47D71C8E790F8422090F8413099
:1022B000002A3FF46DAF8BE790F8422090F8413050
:1022C000002AA3D1132B90E790F8422090F84130D8
:1022D000002AA4D1182B07E090F8422090F8413052
:1022E000002A7FF475AF0B2B40F2608104F11C05CE
:1022F00040F24761284602F0A7FF40F2233153E73E
:1023000090F8422090F84130002A7FF461AF0B2B07
:1023100040F24C8104F11C0540F2ED51284602F0D8
:1023200093FF40F2F6213FE790F8422090F84130C9
:10233000002A7FF44DAF0B2B40F2388104F11C05CD
:102340004FF4B361284602F07FFF4FF433712BE75F
:1023500090F8422090F84130002A7FF439AF0B2BDF
:1023600040F2248104F11C0540F2FB41284602F0B2
:102370006BFF40F27D2117E790F8425090F8413012
:10238000002D7FF425AF0B2B40F2108100F11C06CD
:1023900040F2B341304602F057FF40F259214CE77A
:1023A00090F8425090F84130002D7FF411AF0B2B84
:1023B00040F2FC8000F11C064FF48E61304602F0C2
:1023C00043FF4FF40E7138E790F8425090F84130D7
:1023D000002D7FF4FDAE0B2B40F2E88000F11C06CF
:1023E0004FF47D71304602F02FFF4FF4FD713046FF
:1023F00002F037FF0123A4F8405084F84230E1E6B0
:102400000021A0F8401080F84210BDE870401C3058
:1024100002F027BF90F84030042B3FF6D3AEDFE840
:1024200003F003122130490094F84230002B40F0B1
:10243000B58004F11C0540F6E861284602F004FF6F
:1024400040F2747184E694F84230002B40F0A6808C
:1024500004F11C0540F64951284602F0F5FE40F211
:10246000A46175E694F84230002B40F0978004F1A7
:102470001C0540F6D631284602F0E6FE40F2EB514C
:1024800066E690F842304BB904F11C0540F6F711AE
:10249000284602F0D9FE40F2FB4159E694F841305B
:1024A000092B40F28380002104F11C0002F0D9FEC8
:1024B000002363E604F11C0602213046002502F0E9
:1024C000C3FE0121304602F0CCFEA4F8405084F84F
:1024D00042502946304602F0C4FE84F8445041F28E
:1024E0008831204600F041FE41F28833638369E67B
:1024F00090F84030062B3FF665AE01A252F823F06B
:102500006524000847240008292400081D25000828
:102510004925000865250008B524000890F84250B8
:10252000002DBBD100F11C064FF47D61304602F056
:102530008BFE4FF4FD61304602F093FE012384F8D8
:10254000423084F841503DE690F84250002DA5D12C
:1025500000F11C0641F2C111304602F075FE4FF445
:102560000E61E8E790F84250002D97D100F11C066B
:1025700041F2EE31304602F067FE40F6F711DAE73D
:1025800090F8401001290CD0022911D000297FF4C5
:1025900019AE90F84230002B3FF476AF94F84130FA
:1025A00016E690F84230002BF8D1C8E50133D6E5A5
:1025B00000F11C05284602F047FE0121284602F0E2
:1025C00050FE002384F8443089E700BF70B504460C
:1025D0001646002500F0BAFD064B2360657666833B
:1025E000172104F11C0002F06FFE256484F84450AA
:1025F000204670BD107B0108F7B504461546084615
:10260000002722498DF807700DF107020AF0F6F84D
:10261000C6B2012E32D19DF807201C49D31B18BF2A
:1026200001236376284604F04FF89DF8073084F8BC
:1026300044309BB904F11C050221284602F004FE37
:102640003146284602F00DFE41F28831204600F066
:102650008CFD41F28833638303B0F0BD013B032B53
:10266000FAD8204627640A2100F07FFD0A236383FD
:10267000394604F11C0002F0F4FDEDE70449284658
:1026800003B0BDE8F0400EF095B800BFDD62010870
:1026900064620108036A1A68C3691A4216BF826A33
:1026A000426A1B041360704710B5034B0360044675
:1026B00000F05AFD204610BD287B010810B50446E5
:1026C000FFF7F2FF2046382104F0A8FE204610BD97
:1026D00070B50646344600F039FD04AD064B44F8AB
:1026E0001C3B0FCD0FC495E8070084E80700736A10
:1026F000F2691A60304670BD287B0108064B836280
:10270000064BC362064B0363522380F825304FF417
:10271000967004F037BF00BF6D270008A927000896
:102720002527000804F02EBF38B5094B094D03607A
:1027300004460220FEF738FB286820B10368DB68F6
:10274000984700232B60204600F00EFD204638BD40
:10275000407B01085014002010B50446FFF7E4FF49
:102760002046602104F05AFE204610BD30B585B0E9
:10277000054608468DF8080011460DF109001A4675
:102780001C460CF09BFA00230648009302AA631C27
:102790002946006802F034FC003818BF012040428E
:1027A00005B030BD501400202DE9F04186B015462B
:1027B00000271A46CDE9047704468DF80F108DF8EE
:1027C0001010DFF8448004A928461E460CF076FA63
:1027D0000097D8F8000001230DF10F02214602F006
:1027E0000FFC70B90090D8F8000033462A46214605
:1027F00002F027FCC01B18BF0120404206B0BDE814
:10280000F0814FF0FF30F9E750140020F0B590F858
:102810003430A9B00446002B00F0C88000230CA877
:10282000ADF83030ADF83230ADF83430ADF8363088
:10283000ADF83830ADF83A30FEF7D4F8002840F063
:10284000B5800DF13200FEF719F9002840F0AE8096
:102850000DA8FEF7EDF8002840F0A8800DF1360035
:10286000BDF93070BDF93260BDF93450FEF72CF976
:10287000002840F09B800EA8FEF74CF9002840F09D
:1028800095800DF13A00FEF76BF9002840F08E803C
:10289000BDF93620BDF93830BDF93A1002EB82029D
:1028A000520002F16E0003EB8303DC284FEA43037E
:1028B0007ED803F16E00DC287AD894F848300133D2
:1028C000DBB20A2B84F8483005D10023C4E90F336A
:1028D000636484F848304FF47A7317FB03F016FBF7
:1028E00003F10028666C4FF47A7315FB03F2B8BF4E
:1028F0000F304FF47A750029D4E90FC796FBF5FE27
:10290000B8BF0F3105FB1E66002AB8BF0F32002E7C
:10291000B8BF7642CDE909E697FBF5F605FB1677D9
:10292000002FB8BF7F42CDE907679CFBF5F705FB99
:1029300017C6002EB8BF764240F30F10CDE90576DA
:1029400090FBF5F605FB160000B20028B8BF404228
:1029500041F30F1180B242F30F12049091FBF5F096
:1029600005FB101109B292FBF5F305FB13220029B8
:1029700012B2B8BF4942002AB8BF524289B200B26F
:1029800092B236B21BB2029101906421009203967A
:10299000164A0FA803F0A9FEA46B0FA809F070FE59
:1029A000236802461B690FA92046984729B0F0BD4D
:1029B000B4F850E0E06B4FF47A7C03FB0EF302FBBB
:1029C0000EF292FBFCF2104493FBFCF2236CE063EA
:1029D000134423640A220EFB01F35343626C93FBFE
:1029E000FCF31A446264002373E700BFDB64010850
:1029F00073B5044616461D4600F0A8FB264B069A02
:102A00002360962E4FF00003C4E9146575F10005AC
:102A1000C4E90E23C4E9103384F8343084F8483014
:102A200007D29621204600F0A0FB96220023C4E99D
:102A300014234FF4847004F0DDFCBDF92020BDF9AF
:102A40001C10054602F0AAFB144B15491D602846D0
:102A500002F0C3FA4FF4967004F094FD2046FFF79D
:102A60004DFE04F11C00FDF711FF0020FEF79CF95C
:102A70000C20FEF7EFF800250DF107008DF8075048
:102A8000FEF794F89DF8073013B12846FEF744F995
:102A9000204602B070BD00BF407B010850140020EA
:102AA000801A060037B500230546144608460DF186
:102AB000070211498DF8073009F0A0FEC0B20128C5
:102AC00017D10E4B1B780F2B01D01E2B0FD19DF869
:102AD00007300B4A0B49003B18BF012385F83430FF
:102AE0001370204603B0BDE830400DF063BE0649C8
:102AF000F7E70649F5E700BFDD620108830A002019
:102B0000810A0020776201081465010864620108E7
:102B100010B590F8703086B0044683B1094B0A4A6C
:102B20001B681821684603F0E0FD646F684609F0F1
:102B3000A7FD236802461B6969462046984706B0F0
:102B400010BD00BFA00A00202B650108F8B504469F
:102B5000069F16461D4600F0F9FA0A4B23600A4B01
:102B6000E3614C22391D04F120000CF0A7F83B6D05
:102B7000E366002384F87030079BE567C4E91D36DF
:102B80002046F8BD5C7B0108987A010837B5002320
:102B90000546144608460DF1070211498DF8073025
:102BA00009F02CFEC0B2012817D10E4B1B780F2B59
:102BB00001D01E2B0FD19DF807300B4A0B49003B6B
:102BC00018BF012385F870301370204603B0BDE8AC
:102BD00030400DF0EFBD0649F7E70649F5E700BFC5
:102BE000DD620108830A0020800A00207762010864
:102BF0001465010864620108F8B51C300C4602F047
:102C00004DF94FF47A75244B684398423BDD234BD2
:102C1000234AC117C01861F10001A0FB050600237B
:102C200005FB016112F07AF91E4B1F4E1F4AC3E9E2
:102C3000000115783378B3FBF5F105FB1131C9B20A
:102C40001B4A013322F81100002133700B46CEB22B
:102C5000B5421BD893FBF5F3164A1678164A11684D
:102C6000C6F57A77734301FB07334FF47A71B3FBF0
:102C7000F1F31360114A136803441360104A136898
:102C800023441360F8BD00200146CDE732F8026B03
:102C900001313344DBE700BF9CFF630064009CFF0D
:102CA000F8FF0700B00A0020820A00209C010020E3
:102CB000840A00209D010020A00A0020AC0A002008
:102CC000A80A002010B5054B044640F81C3BFEF74F
:102CD0003BFE204600F048FA204610BD5C7B010810
:102CE00010B50446FFF7EEFF2046802104F096FB66
:102CF000204610BD10B5034B0360044600F034FAC3
:102D0000204610BD747B010810B50446FFF7F2FFA2
:102D10002046382104F082FB204610BDF0B5044661
:102D20008BB0406A4B4D00F0CFF9218EA06AFFF7BF
:102D300063FF494B49481A8841F27073002A08BF63
:102D40001A46474B198841F6583353434A4393FB7D
:102D5000F0F342F2D000B2FBF0F2424813444FF4D9
:102D60007A7200885343B3FBF0F33F484FF4616637
:102D70007343B3FBF2F20260A1F5DA501938002771
:102D8000C7282F703AD894F83210384D84F8337031
:102D90000131C9B2FA29287884F832102AD134498D
:102DA000096839B320BBB2FBF6F13C2006FB1122C7
:102DB000012129702F49B3FBF1F3B2FBF0F100FBC5
:102DC0001122CDE90012DBB22B4A162104A803F030
:102DD0008CFC256A04A809F053FC2B68024604A960
:102DE0001B69284698472549E06A04AAFFF704FCB6
:102DF0000BB0F0BD80F001002870F9E74B1E9BB2CC
:102E000041F657329342F3D894F833300133DBB2B2
:102E10000F2B84F83330EBD1194904A80DF0CAFC0C
:102E200004A809F02DFC266A336802463046154E88
:102E30001B6904A99847337823B11349E06903AAB1
:102E4000FDF758FAC82004F09DFB01232B700023E6
:102E50003370CDE77D0A00209A0A002030DFFFFFA3
:102E60009C0A0020A00A0020A40A00207C0A00205E
:102E7000A80A002080EE36003C6501087762010850
:102E800058650108830A0020CC6E010838B5044655
:102E9000154600F05BF9084B2360049BE361059B3A
:102EA0002362069B6362079BA362089BE362002385
:102EB00063862586204638BD747B010810B5034B18
:102EC0000360044600F050F9204610BD8C7B0108D9
:102ED00010B50446FFF7F2FF2046282104F09EFAC1
:102EE000204610BD30B590F820309DB00446002B30
:102EF00030D008A803F060FC04A804F091FA089A06
:102F00000B9942F210735A43B2FBF1F20599642017
:102F100092B25943069BB1FBF3F189B2B2FBF0F3D5
:102F2000B1FBF0F500FB132200FB151189B292B240
:102F3000CDE9015100923221074A0FA803F0D5FBD9
:102F4000E4690FA809F09CFB236802461B690FA9DE
:102F5000204698471DB030BD6A65010810B504468B
:102F600000F0F4F8044B2360029BE361002384F833
:102F70002030204610BD00BF8C7B010837B50023F0
:102F80000546144608460DF1070211498DF8073031
:102F900009F034FCC0B2012817D10E4B1B780F2B5F
:102FA00001D01E2B0FD19DF807300B4A0B49003B77
:102FB00018BF012385F820301370204603B0BDE808
:102FC00030400DF0F7BB0649F7E70649F5E700BFCB
:102FD000DD620108830A00207E0A00207762010872
:102FE000146501086462010810B590F87430C0B02F
:102FF00004468BB1094B0A4A1B884FF4807168461E
:1030000003F073FB246F684609F03AFB236802461D
:103010001B6969462046984740B010BD9C0A0020B5
:103020009A65010838B50446049D00F08FF8094BF5
:103030002360094BE3614C22291D04F120000BF0B1
:103040003DFE2B6DE366059B23670023A4F87430D7
:10305000204638BDA47B0108987A010837B50023C3
:103060000546144608460DF1070211498DF8073050
:1030700009F0C4FBC0B2012817D10E4B1B780F2BEF
:1030800001D01E2B0FD19DF807300B4A0B49003B96
:1030900018BF012385F874301370204603B0BDE8D3
:1030A00030400DF087BB0649F7E70649F5E700BF5A
:1030B000DD620108830A00207F0A00207762010890
:1030C000146501086462010810B590F87530132B7F
:1030D00003D8013380F8753010BD1C3001F0DEFEDE
:1030E00046F6A5239842084C02D200232380F3E73A
:1030F0004FF47A7141F2C5120023A0FB010111F0D7
:103100000DFF2080E8E700BF9C0A002010B5054BAA
:10311000044640F81C3BFEF717FC204600F024F85C
:10312000204610BDA47B010810B50446FFF7EEFF52
:103130002046782104F072F9204610BD027E22B1AB
:1031400003680022DB6802761847704710B5C0E9B3
:10315000022300220023C0E90423024C0460002360
:10316000037610BDBC7B010870470023C3600022BA
:103170000023C0E9042381607047D0E9043210B510
:10318000D0E90241013342F10002A342C0E9043216
:103190008A4105DB00230022C0E9042301230376D2
:1031A00010BD38B504460025227AEBB29A4200D809
:1031B00038BD626852F82300FFF7DFFF0135F3E7FF
:1031C00010B4826801685410034601EB6200D20714
:1031D00048BF0A595B685DF8044B48BFD35818478D
:1031E00038B505460A4B45F8103B0446284602F020
:1031F000AFFA084B2361284602F0AAFA04F138001E
:10320000FDF758FF284602F029FB204638BD00BFD5
:10321000D47B0108547D010810B50446FFF7E0FF98
:103220002046502104F0FAF8204610BDF0B5124BAC
:10323000027200F1100685B0C0E900310446304644
:10324000DDE90A5702F0D0FA0C4B03930C4B0193C3
:103250004FF47A7100230293A5FB012301FB07338E
:1032600030466946009402F0A0FA6846FDF722FF56
:10327000204605B0F0BD00BFD47B0108DC7B01080F
:10328000A331000838B504460025227AEBB29A42F1
:1032900000D838BD626852F8230003689B689847DD
:1032A0000135F2E71EF0040F0CBFEFF30880EFF3D7
:1032B0000980816911F8021C002932D101B590E81A
:1032C0000F10E047BDE800508CE80300244B93E862
:1032D0000600914208BF70471A6041B91EF0100FF6
:1032E00010D1204B186820F0010018600AE02CE98A
:1032F000F00F1EF0100F08BF2CED108A81F822E0AD
:10330000C1F838C0906B92F8221061F0FF0E1EF0E9
:10331000100F08BFB0EC108AB0E8F00F80F30988F6
:103320007047114A13689942FAD801B552F821C082
:103330000FC8E047BDE80050CCF80000704701B569
:1033400000F016FFBDE80140EFF3098CBEE701B5C0
:1033500000F0D2FEBDE80140EFF3098CB6E70000B3
:10336000D801002034EF00E0907C010808B5014648
:1033700030B96FF0030000F02AF86FF0030008BDC9
:10338000132001F087FA30B94FF0FF3000F01FF83A
:103390004FF0FF30F3E70020F1E7000008B5EFF34E
:1033A00005834BB9EFF3108333B9EFF311831BB9E6
:1033B000DFF814C000DF08BD6FF0050000F007F86B
:1033C0006FF00500F7E700BF6D33000870477047E6
:1033D000EFF310832BB9EFF31180003818BF0120F1
:1033E000704701207047000008B5094B1A7A022A7D
:1033F00008D0032A0AD04FF0FF3001F015FD4FF03E
:10340000FF3002E003221A72002008BD0120FCE711
:10341000C401002008B5094B1A7A022A0CD0032AED
:1034200003D102221A72012008BD4FF0FF3001F0D3
:10343000FBFC4FF0FF30F7E70020F5E7C401002068
:1034400070B5464C237A012B00F0858033B14FF0E4
:10345000FF3001F0E9FC4FF0FF3070BD404DD5E981
:103460000B61EB68E3652B8AA4F854303046AB68F7
:10347000236400F033F908B1C4F88060D5E9056130
:10348000304600F02BF908B9D4F880606667D5E9BA
:103490000761304600F022F908B9D4F88060A667C9
:1034A000D5E90961304600F019F908B9D4F880600F
:1034B000E6676E6B3EB1D6E902233168304600F014
:1034C00077F9C4F88460AE6B3EB1D6E90223316867
:1034D000304600F06DF9C4F88860EE6B3EB1D6E975
:1034E00002233168304600F063F9C4F88C602E6C1A
:1034F0003EB1D6E902233168304600F059F9C4F8EC
:1035000090606E6C3EB1D6E902233168304600F01F
:103510004FF9C4F89460AE6C3EB1D6E9022331682D
:10352000304600F045F9C4F89860EE6C3EB1D6E93B
:1035300002233168304600F03BF9C4F89C602D6DE1
:103540003DB1D5E902232968284600F031F9C4F8D5
:10355000A0500123237200207FE700BFC401002098
:10356000207C010870B5254D2B7A012B07D06FF018
:10357000060001F059FC4FF0FF34204670BD01F009
:10358000CBF910B94FF0FF30F3E71D4A1D4E1E492D
:103590007068FF2382F8223092F82230D26863F0FC
:1035A000FF03DB4314BFB3FA83F32023C3F12003EB
:1035B000C2F30222934298BF531CFE2202FA03F385
:1035C0000F4ADBB2D37701F0ADFA04460028D9D117
:1035D00001F0E0FA286101F0C5FA0C4800F08AFF1A
:1035E00000F0EEFF3368DB074CBF0223032383F3B5
:1035F0001488BFF36F8F02232B72BEE7C401002033
:1036000000ED00E0207C01084F330008E0010020BD
:10361000704738B504460D46FFF7D8FE29462046C8
:10362000BDE8384001F0C2BB08B5FFF7F1FFEFF38A
:10363000058333B16FF0050001F0F6FB6FF0050074
:1036400008BDFFF7C5FE0028F4D1DFF808C000DF91
:10365000F6E700BF4134000808B5EFF3058333B146
:103660006FF0050001F0E0FB6FF0050008BDFFF70B
:10367000AFFE0028F4D1DFF808C000DFF6E700BF96
:103680006535000808B5EFF3058333B16FF0050029
:1036900001F0CAFB6FF0050008BDFFF799FE002896
:1036A000F4D1DFF808C000DFF6E700BFE933000817
:1036B00008B5EFF3058333B16FF0050001F0B4FBFB
:1036C0006FF0050008BDFFF783FE0028F4D1DFF896
:1036D00008C000DFF6E700BF1534000810B5034648
:1036E00088B1084310F007000DD117290AD91960D5
:1036F00008391022CC189C605A60585099684A606A
:10370000D860012010BD0020FCE770B5034668B307
:1037100061B3032A2AD80F3121F0070600F108040B
:10372000214624684D68601A25F00305401B864237
:1037300003D920680028F3D170BD5D68186835444E
:103740005D600344083B5868854288BF5D604B68F4
:1037500032431BB94A6001F10800EDE723F003038F
:10376000C818CC50426008600830E5E70020E3E765
:1037700010B5034680B1C9B1A1F1080400F10802F7
:103780000021A24209D1506820F003045868001BB0
:10379000586041B95160012010BD106811460028E1
:1037A000FAD00246EDE713680B60F4E70846F3E74A
:1037B00030B5C0B189B1C2B1CBB10024C0E901427A
:1037C00002FB01F41D190160C360436105611846E5
:1037D000013904D1A41A19510121084630BD8518B8
:1037E00005602846F4E70146F7E71146F5E7194674
:1037F000F3E710B570B100F1140353E8002F12B9CC
:10380000BFF32F8F04E0116843E8001404B1F4E71C
:103810000AB9104610BD043050E8003F591C40E87A
:10382000001404B1F8E7F4E730B5F0B1C3688B4297
:103830001BD803698B4218D900F114031A680A6077
:10384000BFF35F8F53E8002F0C689442F6D143E832
:10385000001505B1F2E7043050E8003F5A1E40E879
:10386000002101B1F8E7002030BD6FF00300FBE755
:10387000EFF310832BB9EFF31180003818BF01204C
:10388000704701207047D1E9013223B19A608A68FC
:103890001AB153607047C262F9E7036370470000D2
:1038A0002DE9F84F8846074638B131B1B0FA80F1BA
:1038B000B8FA88F30B441F2B08DC6FF003010020DB
:1038C00001F0C4FA00242046BDE8F88F08F1030691
:1038D00026F003060C3606FB00FAF2B19468D2F823
:1038E0000090D2E904533CB1A10702D1D268332A37
:1038F00005D86FF00801E2E7D268002AF9D13DB19E
:1039000015F0030B01D19A4552D96FF00901D6E7A2
:10391000002BFAD11CB19B460CE091461546264B74
:10392000D3F8A000D8B1FFF764FF0446A0B14FF070
:10393000010B35BB204B0022D86F5146FFF7E5FE47
:103940000546C0B9BBF1000F06D01B4BD3F8A00051
:10395000214658B1FFF768FF6FF00401AFE7D3F8D5
:10396000800001223421FFF7D0FEDEE7D3F880008B
:10397000FFF7FEFEF0E75246002108F0EDFE4BF0A7
:10398000020BFA2323700023C4E90983C4E90B3333
:10399000A36032462B4684F802B0C4F8049039463E
:1039A00004F10C00FFF704FF034B044A1A678AE78F
:1039B000002CE6D1B3E700BFC40100204D3A000857
:1039C00010B500F1280353E8002F12B9BFF32F8F71
:1039D00004E0511E43E8001404B1F4E70AB90020E2
:1039E00010BDC06A01220028F9D0811CD1E84F3FE8
:1039F000C1E8442F04B1F9E7DBB2002BF0D08068B6
:103A0000F1E7036B30B5E3B1CD780024DA78AA4250
:103A10000FD31A46C1E901248AB19160A4B1616053
:103A2000283050E8003F5A1C40E8002101B1F8E777
:103A300030BD5A681C46002AECD01346E6E7C16246
:103A4000ECE7C1E90133C1620163E9E7F8B58778C2
:103A500004468FB3C568014600272846FFF713FFC9
:103A6000277005F10C042046FFF7DEFEAB68002B43
:103A700048D02046FFF7BDFE0446002842D0284625
:103A800000F038FD3A460646394600F0ADFE3046B5
:103A900000F08CFD6A6A8168064604F10C000BF0A8
:103AA0000DF9F9232370A770F368E37021462846C7
:103AB000BDE8F840FFF7A5BF8568AB68002BF5D0DF
:103AC0005B78832BF2D1284600F014FD3A46064677
:103AD000394600F089FE304600F068FD06466A6A05
:103AE000806804F10C010BF0E9F8F3680BB1E2789F
:103AF0001A7000232370214605F10C00BDE8F84040
:103B0000FFF792BEF8BD00002DE9F0410E461746C2
:103B10009846044618B10378FA2B00D141B92046E3
:103B20006FF0030101F092F96FF00300BDE8F0813E
:103B30008368BBB15B78832B14D100F0DBFC0122DE
:103B40000546002100F050FE284600F02FFD0546F6
:103B5000626A806831460BF0B1F8EB6803B11F7000
:103B60000020E3E704F10C00FFF743FE054670B1C7
:103B70003146626A0C300BF0A1F8F9232B70002358
:103B8000AB70EF7029462046FFF73BFFE8E7B8F13E
:103B9000000F11D04146932000F07CFE10B96FF069
:103BA0000100C3E7064B2046596900F091FCEFF392
:103BB0000983C3E90267F2E76FF00200B6E700BFCE
:103BC000C40100202DE9F0410F46164698460446F0
:103BD00018B10378FA2B00D141B920466FF00301E8
:103BE00001F034F96FF00300BDE8F081FFF7E8FE63
:103BF000054600283AD001462046FFF744FE626A97
:103C000005F10C0138460BF059F80EB1EB78337022
:103C1000002704F10C062F7029463046FFF704FEFA
:103C2000A3680BB90020DFE73046FFF7E2FD054649
:103C30000028F7D0204600F05DFC394606460122F8
:103C400000F0D2FD304600F0B1FC626A81680646A1
:103C500005F10C000BF032F8F9232B70AF70F3680C
:103C6000EB7029462046FFF7CCFEDBE7B8F1000FEA
:103C700011D04146832000F00DFE10B96FF0010015
:103C8000B2E7064B2046596900F022FCEFF30983A6
:103C9000C3E90276F2E76FF00200A5E7C401002055
:103CA00008B5064B08219A6ED86EFFF7F9FD044B54
:103CB000D864B0FA80F04009404208BD207C010879
:103CC000C40100202DE9F04106460F4690461C46EF
:103CD000EFF305834BB196B930466FF0030101F065
:103CE000B5F86FF00300BDE8F081FFF7C1FD0028D3
:103CF000F1D1DFF84CC03046234600DFF3E73378DC
:103D0000FA2BE9D1002FE7D0002CE5D106F10C0009
:103D1000FFF76FFD054680B1726A39460C300AF034
:103D2000CDFFF9232846C5E901762B70AC7085F8E4
:103D3000038000F065FA2046D5E76FF00200D2E775
:103D4000093B0008F8B504460F4616461D46EFF33A
:103D5000058343B18CB920466FF0030101F076F87A
:103D60006FF00300F8BDFFF783FD0028F2D1DFF804
:103D700048C020462B4600DFF4E72378FA2BEAD12F
:103D8000002FE8D0002DE6D12046FFF719FE0546AA
:103D900070B100F10C01626A38460AF08FFF0EB173
:103DA000EB7833702846EC6000F02AFA0020D9E75F
:103DB0006FF00200D6E700BFC53B0008EFF31083A9
:103DC0002BB9EFF31180003818BF01207047012094
:103DD0007047000038B5034698B3D0E900458068C5
:103DE00060B110F0030202D1DB681B2B24D86FF006
:103DF0000801002001F024F800201CE0DB68002B03
:103E0000F5D1114BD3F8940030B9D3F880000122DA
:103E10001C21FFF77AFC01E0FFF7EBFC70B10123F6
:103E200083700023C0E90233C0E90433F522027035
:103E3000C5704460037638BD1346F1E76FF00401A6
:103E4000D8E704460546DCE7C4010020294B70B5DD
:103E50005D6904460E4635B96FF0070100F0F0FFCA
:103E60004FF0FF3070BD10B10378F52B07D020461E
:103E70006FF0030100F0E4FF6FF00300F2E7037E50
:103E800053B9C0E90353EB6A436103B11861EC62B3
:103E9000012323760020E5E7C278D1070DD5C1685C
:103EA000A9420AD1FF2B06D16FF00F0100F0C8FF25
:103EB0006FF00200D6E70133EBE7002EF8D093074E
:103EC0000AD5E06895F9203090F920209A4203DA6B
:103ED00080F8203000F020FB3146532000F0DAFC5F
:103EE00010B96FF00100BDE72946204600F0F0FA56
:103EF000F7E700BFC40100202F4B5A6970B5044694
:103F000032B96FF0070100F09BFF4FF0FF3070BD3A
:103F100010B10378F52B07D020466FF0030100F0B5
:103F20008FFF6FF00300F2E7037E33B96FF00E01ED
:103F300000F086FF6FF00200E9E7C168914202D00D
:103F40006FF00D01F4E7013BDBB203760BB100200B
:103F5000DDE743690BB1016919612169E9B14B6181
:103F600092F92130D56AD5B982F82030A36883B19F
:103F7000204600F0BFFA06462A46294600F034FCE7
:103F8000F36A6361C4E9036503B11C610123F46250
:103F90002376002000F01CFBD9E7D362E0E7E97844
:103FA000890706D5A96821B191F920108B42B8BFC5
:103FB0000B466D69D7E700BFC40100202DE9F04131
:103FC0000446002601270CB9BDE8F081E378D4F857
:103FD00014801B0712D5A36826767BB1204600F01B
:103FE00089FA00220546114600F0FEFBEB6A636188
:103FF000C4E9035603B11C61EC6227764446E2E74C
:1040000010B4C3789B071DD5C06890F92120C36AFE
:10401000DC78A40709D59C688C4208BF8C6824B161
:1040200094F92040A242B8BF22465B69002BEFD131
:1040300090F92030934205D080F820205DF8044BA1
:1040400000F06ABA5DF8044B7047000008B50246FC
:10405000EFF3058333B100206FF0050100F0F0FEAF
:10406000002008BDFFF7AAFE0028F4D1DFF808C041
:10407000104600DFF5E700BFD53D000808B5024651
:10408000EFF305833BB110466FF0050100F0D8FE59
:104090006FF0050008BDFFF791FE0028F3D1DFF8AF
:1040A00008C0104600DFF5E74D3E000808B502469F
:1040B000EFF305833BB110466FF0050100F0C0FE41
:1040C0006FF0050008BDFFF779FE0028F3D1DFF897
:1040D00008C0104600DFF5E7F93E000810B5D0E84B
:1040E0005F3F5A1C914200D80022C0E8542F04B10F
:1040F000F5E798B210BD000038B51C4C00F046FD45
:10410000E3680133E36000F021FA002000F060FA78
:10411000236D03B19847226C32B3A369E06BD96970
:10412000984202D0E36301B9DA61DA69C2B9237A4D
:10413000022B19D1656ABDB1E36B95F9202093F983
:1041400020309A4210D1284600F0DDF9E06B00F0F3
:10415000F5F9284600F034FA236CE563EB6103E0DF
:10416000013ADA61002AE2D038BD00BFC401002064
:1041700070B5224C04F1560504F15A06B4F85410F7
:10418000D5E85F3F13B9BFF32F8F04E05A1EC5E88F
:10419000502F00B1F4E79BB25BB33046FFF79EFFB0
:1041A000E36D53F8200020B30378F13B082BE5D8EA
:1041B00001A252F823F000BFDD4100087D41000854
:1041C000E34100087D4100087D410008E741000807
:1041D000EB4100087D410008EF410008236E98473D
:1041E000CCE7636EFBE7A36EF9E7E36EF7E7236FB7
:1041F000F5E7BDE87040002000F0EAB9C4010020F6
:1042000070B5164C0546B4F8541004F15602D2E8C5
:104210005F3F994202D8BFF32F8F04E0581CC2E8D9
:10422000560F06B1F3E79BB2994205D82946022002
:10423000BDE87040FFF7EDB904F15800FFF74EFFFD
:10424000E36D43F82050637A23B9054B4FF0805259
:104250005A6070BD0123A372FBE700BFC4010020B8
:1042600000ED00E0EFF310832BB9EFF3118000387D
:1042700018BF01207047012070470378F12B00D050
:104280007047C068F9E7000010B5C469621CD0E946
:1042900004310CD103B1596142691AB11361002391
:1042A000436101E0074A13630023C36110BD1BB1E2
:1042B000DA6959612244DA614269002AEED1014A81
:1042C000D362F1E7C401002010B50A4A90F920102A
:1042D00001234370536A1C321BB193F920408C4276
:1042E00005DCC0E90232906003B1D86010BD1A4607
:1042F0009B68F1E7C4010020014B5869704700BF7B
:10430000C401002028B10378F12B01D1406B704724
:1043100000207047084B5A6A012022B9DA6A2AB98C
:104320001B6B33B9704792680130F6E712690130B0
:10433000F5E71B690130F4E7C401002010B5002344
:10434000038083789A07044608D513F0100F016B99
:104350000E4B0FD0D3F88400FFF766FAA378DB0783
:1043600012D50A4BD3F88800214638B1BDE8104079
:10437000FFF75ABA586FFFF7FBF9EFE7BDE81040B7
:10438000D3F88000FFF7F4B910BD00BFC4010020CE
:1043900008B500F061FDDFF810C000DF4FF0FF311D
:1043A000002000F047FDFEE751480008930710B5D4
:1043B00002F0010422D400F1280384B153E8000F75
:1043C00000EA01028A4203D0BFF32F8F002005E0EC
:1043D00020EA010243E8002404B1EFE710BD53E8EE
:1043E000000F084203D1BFF32F8F002005E020EA21
:1043F000010243E8002404B1F1E7EFE7806A00EA34
:1044000001031CB1994218BF0020E7E7002B08BF49
:104410000020E3E70246B8B10378F12B14D10B4B2F
:104420001B6813F0040010D0136B09491868884208
:104430000AD1526B0420904200D370471958B1F151
:10444000CC3F02D10430F6E700207047207C010801
:10445000A52E5AE210B570B109B3124A0346546949
:1044600043F8044B546A012034B9D46A5CB9126B26
:104470000AB181420ED810BD8142F6D043F8044BF8
:104480000130A468F0E78142F1D943F8044B0130D0
:104490002469EBE743F8042B01301269E8E708468A
:1044A000E9E700BFC4010020C278D207034601D467
:1044B000FFF744BF0422054942700022C2604A6BE4
:1044C000826002B1D0604B63704700BFC40100201E
:1044D00010B591F9202083681BB193F920409442D4
:1044E00005DAC1E90230816003B1D96010BD184618
:1044F0009B68F1E70346806882689A6002B1D360E6
:104500000023C3607047C2682AB18368936003B117
:10451000DA600023C360704710B5044664B12378A5
:10452000F12B07D0FFF7EFFF01462046BDE8104012
:10453000FFF7CEBFE468F1E710BD0000012301469C
:1045400043700148FFF7C4BFE001002038B5164DA5
:10455000EC6A44B3E369013BE36123BB6378732BEB
:1045600006D009D8532B0BD003F0DF03432B0DD11A
:104570002046FFF782FE09E003F0EF03832BF6E706
:104580002046FFF77AFE2146FFF73AFD2046FFF767
:10459000BAFFFFF7D3FF246924B1E369002BDDD014
:1045A00000236361EC6238BDC401002090F8223022
:1045B000826B13F0100F14BF20206020104470474E
:1045C00002234370014B9861704700BFC401002073
:1045D00070B5124D04462E7A696990B9022E0FD13A
:1045E0006C6A6CB194F9202091F920309A4207DD71
:1045F0002046FFF788FF0846FFF766FE6670AC614D
:1046000070BD022E05D190F9202091F920309A42F8
:10461000F1DC2046BDE87040FFF790BFC4010020E8
:104620002DE9F74F8246019140B96FF0030100F088
:1046300001FC0024204603B0BDE8F08F002A00F002
:104640008680D2E90093946897690093D2E9045672
:1046500044B1A00702D1D368432B06D86FF00801FC
:104660000020E4E7D368002BF8D13DB1690702D1FF
:10467000002E40F09E806FF00A01F1E72FB17B1E03
:10468000372B03D96FF00B01EAE71827002E40F013
:104690009480002C68D14E4BD3F8880000285CD061
:1046A000FFF7A7F80446002873D04FF0010BDFF89E
:1046B000208185B9002E5AD1464AD8F88400566D1B
:1046C000002854D0FFF795F80546002858D04BF045
:1046D000100B4BF0020B009BE3700023C4E9023384
:1046E000C4E90433C4E90633C4E90933C4E90B352A
:1046F000A6F1400340F2F1122B44C4E90E3A2280A5
:10470000354B84F802B07FB2FD22C4F8049084F8DF
:10471000207084F82170628466632B602D4B1B68C7
:104720005B073ED4A36B34220021184608F014F82E
:104730002A4A2B4BC0E90D2A4FF08072C263019ABE
:1047400002622046C8F86030FFF742FF72E79146E8
:1047500015461827164600929DE7D3F880000122DF
:104760004421FEF7D2FF9DE74FF0000B9FE72A465A
:10477000D8F874003146FEF7C8FF05460028A8D1D6
:10478000BBF1000F05D0D8F88800214620B1FFF713
:104790004BF86FF0040163E7D8F88000FEF7E8FFFC
:1047A000F7E726F00302443ACC21281D07F0D4FF96
:1047B000B8E7002F7FF463AF182772077FF45BAF71
:1047C000084BA6F148029A427FF663AF53E700BF59
:1047D000C4010020207C0108A52E5AE29143000864
:1047E0000D480008B7FFFF7F38B505461446FFF7B0
:1047F000DDFE01602846FFF747FD1CB1BDE83840EB
:10480000FFF7E6BEBDE83840FFF798BE10B5437825
:10481000332B04460CD1416A90F82320FFF7C6FDE4
:10482000014628B120460022BDE81040FFF7DCBF5A
:1048300010BD10B50446806918B100221146FFF77B
:10484000D3FF6378232B02BFA36800229A6110BDB7
:1048500070B50F4C267A022E18D1636AB3B1656920
:10486000E86AFFF7ABFB2846FFF7E3FF04F11C0003
:10487000FFF740FE4670A061EFF30983AB630023AE
:1048800063612846BDE87040FFF70EBE70BD00BFF3
:10489000C401002038B51E4C237A022B024634D1C5
:1048A000606AA0B163695A704A1C16D1226B00215C
:1048B00072B94FF0FF30C3E90421D86159B10B61DF
:1048C0001448FFF717FE02234370A061012038BD92
:1048D00011461269ECE72363F2E7E26A002012B1A5
:1048E000D569A9420BD2C3E90420D96158B103614B
:1048F000002AE5D0D0695361401AD061E0E7104644
:10490000491B1269EBE7E362F2E70020DFE700BF33
:10491000C4010020E001002038B50D4C0D48A26D07
:104920000D4D0021FFF77CFE636EA8625BB19847D6
:1049300058B9E26DE96C206EFFF772FEA86400388A
:1049400018BF012038BD0120FCE70020FAE700BFB6
:10495000207C0108A54D0008C401002010B50446C4
:10496000EFF3058333B100206FF0050100F062FA28
:10497000002010BDFFF776FC0028F4D1DFF808C056
:10498000204600DFF5E700BF2146000808B5EFF339
:10499000058313B1054B586908BDFFF763FC002878
:1049A000F8D1DFF80CC000DFF6E700BFC40100203B
:1049B000F942000808B50246EFF305830BB1002069
:1049C00008BDFFF74FFC0028F9D1DFF808C01046FA
:1049D00000DFF5E70543000808B50246EFF305835D
:1049E0000BB1002008BDFFF73DFC0028F9D1DFF82E
:1049F00008C0104600DFF5E71544000808B5EFF3DE
:104A000005830BB1002008BDFFF72CFC0028F9D16D
:104A1000DFF804C000DFF6E71543000808B50246DA
:104A2000EFF305830BB1002008BDFFF71BFC002846
:104A3000F9D1DFF808C0104600DFF5E7554400085B
:104A400030B50C4D6B6C002213B11C698C420AD935
:104A5000C0E9022301611BB11C699860641A1C61E2
:104A60002AB1D06030BD1A46091BDB68ECE76864E8
:104A7000F8E700BFC40100202DE9F041184D6C6C2F
:104A800054B323696E69013B23610127236913BB7A
:104A9000E3680BB1A2689A606B640023E86C1A4665
:104AA00004F11801FFF70EF958B1D5E90583214645
:104AB00003206B61FEF7ADFD6B6913B9B04508BF0C
:104AC0000026E378012B09D161692046FFF7B8FF82
:104AD0006C6C002CDAD16E61BDE8F0816770F7E78D
:104AE000C401002008B5FFF7DBF818B9034B044AEE
:104AF0001A6508BD4FF0FF30FBE700BFC40100207E
:104B0000794A000807B504464FF0FF330022694692
:104B10002046FFF717F90028F6D1DDE90030984765
:104B2000F2E70000A8B10C4B1B68B3FBF0F00138B2
:104B3000B0F1807F0DD2094BFF2283F823204FF084
:104B4000E02306221A61586100209861044B187016
:104B500070474FF0FF3070477803002000ED00E011
:104B6000A01A0020074B1A782AB100221A70064BAF
:104B70004FF080625A604FF0E022136943F0010366
:104B800013617047A01A002000ED00E04FF0E02311
:104B90001B6970474FF0FF307047000008B5094BA4
:104BA000094A1A60094B9B1A094A1360094B0A4AC1
:104BB0001A600A4B9B1A0A4A136000F05FF800F073
:104BC00091F800BF081B0020007C0120008001201C
:104BD000041B0020A02D002038310020007C012083
:104BE0009C2D00200E4838B50E4B03600B250E4B54
:104BF00045601C24C4608360FFF728FA0B4B1860E3
:104C00000B480C4BC460C0E900350B4B8360FFF7C9
:104C10001DFA0A4B1860BDE838400AF0DFB900BF42
:104C2000D41A0020C8650108E41A0020001B0020E7
:104C3000A41A0020D5650108B41A0020D01A00205B
:104C4000FCF730BE024B4FF0FF311868FFF716BA81
:104C5000001B0020014B1868FFF728BA001B00203A
:104C6000024B4FF0FF311868FFF708BAD01A002046
:104C7000014B1868FFF71ABAD01A002008B501F0E6
:104C80009DF90C4B0C4998684FF000531A1802F12B
:104C90006042126843F8042B8B42F7D1054B4FF06A
:104CA00000529A6003F05EFB04F02CF9BDE8084066
:104CB00000F015B800ED00E0940100207047704747
:104CC00008B500F043F8FFF7F9FFFFF78BFFFFF798
:104CD000F6FF02F06FF8BDE80840FFF7B1BFFEF73E
:104CE000A3BC0000114C124B23614FF4805363614D
:104CF0004423E3600F4BA360182307B5A3610E485C
:104D00000E4B236022460021FFF728FE034628B9F8
:104D10000B49009022460B4802F054F8FEF79CFC29
:104D20000023094900931A46F5E700BF702B0020C5
:104D3000701B00202C1B0020C14C0008DF650108FF
:104D4000E46501081D010180006601081FB5064BDE
:104D50000FCB6C4684E80F002046FFF777F9034B32
:104D6000186004B010BD00BFF47C0108281B0020AF
:104D700073B506460C46154602F01EF858B90634BF
:104D80002ABF064B064953F82410002300933246ED
:104D9000284602F017F802B070BD00BF047D01087C
:104DA0002D67010808B500F071F8000007B5002371
:104DB000411E009302460023042919D8DFE801F0C0
:104DC00003080C1014000C490C48012201F0FAFFF2
:104DD0000B490C480222F9E70B490C480322F5E77E
:104DE0000B490C480422F1E70B490C480522EDE77A
:104DF0000B490C48EAE700BF25660108250102803F
:104E000046660108260102806B66010827010280C0
:104E1000A066010828010280DB6601082A010280E1
:104E20001B67010800010280014A0146FFF7A0BF8D
:104E300031010180014AFFF79BBF00BF32010180B1
:104E4000014AFFF795BF00BF33010180014AFFF718
:104E50008FBF00BF3801018010B5FFF797FD034BEE
:104E60001B6813B1BDE81040184710BD942B0020FB
:104E700008B501F013FE01F0BFFF01F0F7FF01F0EC
:104E8000D1FFBDE8084001F01FBE000008B5024C8C
:104E900023689847FCE700BF6802002038B5054644
:104EA000044655F8043B9B689847284602F020FECC
:104EB00023680546DB6820469847284638BD000031
:104EC00038B5084B0360044602650D46FCF728FD23
:104ED0002946201D02F03CFC2046FCF72BFD204615
:104EE00038BD00BF987A0108036801221B690021C0
:104EF0001847036800221B69114618476FF0150018
:104F000070470000C36810B52BB9054905484FF438
:104F1000FD7201F003FDBDE810401B68184700BF9B
:104F20005D6301086863010810B5044601F0B6FD31
:104F30002046012102F09CFEBDE8104001F0C4BDF6
:104F400010B5044601F0AAFD2046002102F090FEB3
:104F5000BDE8104001F0B8BD38B504460D4601F07B
:104F60009DFD2946204602F07FFEBDE8384001F055
:104F7000ABBD426810B48AB1D0E9033404F001013A
:104F800023B959B161105158CB5801E00029F9D12A
:104F9000816802EB64005DF8044B18475DF8044B30
:104FA00070470000064B10B504460360806A08B1E4
:104FB00001F0BEFB201DFCF77DF8204610BD00BFB0
:104FC000247D010810B50446FFF7ECFF20464FF49E
:104FD000847102F023FA204610BD036870B50446C0
:104FE0000D461B68984704F13000C4F8D850294694
:104FF00002F058FF236820465B68BDE87040184700
:105000002DE9F34106461D4656F8303B1B68044621
:105010000F46904698479DF8203083F00103009397
:1050200042462B463946304603F08EF82368064642
:105030005B6820469847A81B18BF012002B0BDE856
:10504000F0812DE9F34106461D4656F8303B1B68BA
:1050500004460F46904698479DF8203083F00103A0
:10506000009342462B463946304603F00DF823683C
:1050700006465B6820469847A81B18BF012002B06F
:10508000BDE8F08170B590B00D46144600211C2299
:1050900002A807F061FB012600231A46294602A850
:1050A000009600F0E6FC1C22002109A807F054FB42
:1050B00000231A460096214609A800F0DAFC0A9B54
:1050C0001A68099B1A4203D16FF0010010B070BD3D
:1050D000039B1968029B194043D109A8FFF73CFFC5
:1050E00009A8FFF721FF0A24002109A8FFF734FFD0
:1050F000099B0C9A1B041360052002F0D7F90121CB
:1051000009A8FFF729FF0B9B099A1A60052002F0F6
:10511000CDF9013CE8D102A8FFF706FF029B059AF2
:105120001B041360052002F0C1F90B9B099A1A6059
:10513000052002F0BBF9049B029A1A60052002F0D8
:10514000B5F902A8FFF7FCFE09A8FFF7F9FE0A9BD4
:105150001A68099B1A42B7D0039B1A68029B1A422D
:10516000B2D00020B2E710B500210446242240F856
:10517000041B07F0F1FA204610BD08B5DC30FCF73F
:10518000A7FBBDE8084002F0C7B908B5DC30FCF762
:105190009FFBBDE8084002F0DBB90000F8B51A4BF0
:1051A00003600D46194B4361002100F130070446AE
:1051B000C0E90711C0E909110161818516468061C6
:1051C000A822384607F0C8FA114BC4F8D83004F1C9
:1051D000DC00FFF7C8FF2046FFF7CFFF3246294625
:1051E000A4F80451A4F806612046FFF74BFFB4F978
:1051F0000621B4F90411384602F00CFF2046FFF7EF
:10520000C4FF2046F8BD00BF247D0108734F00088D
:10521000A086010038B504460D4601F03FFC294642
:10522000204603F0C1F9BDE8384001F04DBC38B567
:1052300004460D4601F032FC2946204603F096FB59
:10524000BDE8384001F040BC38B504460D4601F0D9
:1052500025FC2946204603F033FABDE8384001F02A
:1052600033BC38B504460D4601F018FC29462046EB
:1052700003F081FBBDE8384001F026BC837E10B509
:1052800004461BB901F0B8FD0123A37610BD837E4F
:1052900010B504461BB101F0C5FD0023A37610BD77
:1052A00010B5044601F0FAFBE37E4BB9B4F91810CF
:1052B000204603F097FA2046FFF7E0FF0123E3764C
:1052C000BDE8104001F000BC10B5002300220446E8
:1052D00001834383C2610362FFF7E2FF204610BDF2
:1052E00010B5044601F0DAFBE37E3BB1204603F043
:1052F00055F92046FFF7CBFF0023E376BDE81040C9
:1053000001F0E2BB10B50446FFF7EAFF204610BDEE
:105310007047426810B48AB1D0E9033404F0010147
:1053200023B959B161105158CB5801E00029F9D186
:10533000816802EB64005DF8044B18475DF8044B8C
:105340007047000070B500F14C06B0F9C020B0F90C
:10535000BE100446304603F011FCD4E932530DB9B7
:10536000DA070ED55A1004EB6300DB0748BFA358D9
:1053700094F8D01048BF5D59B4F9D220B4F9D430B4
:10538000A847D4F8B810304603F0D2FB2246304686
:105390000249BDE8704002F01FBB00BFA1550008E4
:1053A0002DE9F04198461E4B03601E4B43600025DB
:1053B0001D4B856016464C220446C0E90555C0E9E0
:1053C00007550F46C360858445634564A0F848507F
:1053D00029460061104407F0BFF940F20113A4F818
:1053E000BC304FF6FF732046C4E92D58C4E931554F
:1053F000C4E93655C4F8A450A4F8BE70A4F8C0603F
:10540000C4F8CC5084F8D050A4F8D230A4F8D430EA
:10541000C4F8E050FFF796FF2046BDE8F08100BFDA
:105420003C7D0108455300081353000838B5054674
:10543000044655F84C3B1B689847284603F026FB6A
:10544000236805465B6820469847284638BD38B52E
:105450000546044655F84C3B1B689847284603F020
:105460002DFB236805465B6820469847284638BDD3
:1054700003682DE9F04105461B6816460F4698471C
:1054800095F8BC30340103B1AEB195F8BD300BB125
:10549000012E10D098342C44BC4206D02046FBF795
:1054A00009FE39462046FCF744F92B6828465B681C
:1054B000BDE8F0411847983401F0F0FA2C44FA683E
:1054C000E36805F14C089AB10BB901F095FCA742CD
:1054D00006D02046FBF7EEFD39462046FCF729F9B9
:1054E00001223146404602F083FA01F0EDFADCE792
:1054F0000BB101F097FC2046FBF7DCFD0022E260D7
:10550000EFE7000030B51B4B036085B000252A464D
:10551000694604460395FFF7ABFF6846FBF7CAFDF3
:105520000122694620460395FFF7A2FF6846FBF774
:10553000C1FD94F8BC3013B994F8BD301BB104F12F
:105540004C0003F03BFA04F1A800FBF7B3FD04F1B3
:105550009800FBF7AFFD04F13800FBF7ABFD04F159
:105560002800FBF7A7FD206A08B101F0E1F820460A
:1055700005B030BD3C7D010810B50446FFF7C2FF01
:105580002046E42101F04AFF204610BD4C3002F0D5
:105590007FBA10B54C300C4602F096FA204610BD8A
:1055A00000EB0110983008B5C3680BB1FFF7AAFCF7
:1055B00008BD036870B504461B680D46984794F80B
:1055C000BC30AB4217D0E5B901F068FA2A4629464B
:1055D00004F14C0002F00CFAD4F8A4308BBB01F0BB
:1055E00073FA84F8BC5035B994F8BD301BB904F196
:1055F0004C0003F0E3F9236820465B68BDE8704087
:10560000184794F8BD304BB9A2686368511004EB99
:105610006200D20744BF6258D358984701F03EFA5F
:10562000D4F8A430002BDAD004F19800FFF76AFC1C
:1056300001F0E2FB0122002104F14C0002F0D8F954
:10564000CDE701F0EFFBCAE7036870B504461B68BD
:105650000D46984794F8BD30AB4217D0E5B901F03C
:105660001DFA2A46012104F14C0002F0C1F9D4F8D8
:10567000B4308BBB01F028FA84F8BD5035B994F8EA
:10568000BC301BB904F14C0003F098F923682046A4
:105690005B68BDE87040184794F8BC304BB9A2680D
:1056A0006368511004EB6200D20744BF6258D358BC
:1056B000984701F0F3F9D4F8B430002BDAD004F1B4
:1056C000A800FFF71FFC01F097FB0122114604F12F
:1056D0004C0002F08DF9CDE701F0A4FBCAE770B5EC
:1056E000D0E90213D0E908250446521845EB03031C
:1056F00000F0A4F8636B2BB104F128001B68BDE82F
:105700007040184770BD884270B504460D460AD0F7
:10571000FBF7D0FCEB68E3602BB1294620465B68C1
:10572000BDE87040184770BD38B50446154600F016
:105730006FF8064B236000220023C4E908230023EE
:10574000636384F83850204638BD00BF547D01089B
:1057500013B5044601A800F0F3FF204600F078F8E6
:10576000636B23B194F838300BB101F05BFB04F1AB
:105770002800FBF79FFC0023636301A800F0E6FF0D
:1057800002B010BD70B5054614461E4600F060F824
:10579000C5E90846A86900F0EBFB221846EB0103B7
:1057A0002846BDE8704000F049B8F7B5044601A8A6
:1057B0001D460F46164600F0C3FF636B23B994F8ED
:1057C00038300BB101F018FB394604F12800FFF71F
:1057D0009AFF32462B462046FFF7D4FF01A800F07F
:1057E000B5FF03B0F0BD000010B5044600F0D2FBD9
:1057F000012201462046FFF797FF024B2360204617
:1058000010BD00BF607D010803681B6818470000D9
:1058100010B50446074B236000220023C4E902238D
:1058200000230846A161C4E90433034900F02EFBBC
:10583000204610BD6C7D01080958000807B500908E
:1058400000F10801806900F05EFB03B05DF804FB25
:1058500000F10801806900F070BB000010B5034B37
:1058600003600446FFF7F4FF204610BD6C7D01087D
:105870000020704700290CBF6FF01800002070470F
:105880000120704770476FF01C0070476FF01C00DC
:1058900070476FF0150070476FF0150070470120DA
:1058A000704701207047002070470020704770B596
:1058B00011F0010406460D4604D0FFF7B7FD041EA3
:1058C00018BF0124EB0605D53046FFF7C0FD08B12F
:1058D00044F01004204670BDA0F1E400FFF7E7BFDC
:1058E00008B5FFF766FE002008BDA0F1E400FFF751
:1058F000F7BF08B5FFF7A8FE002008BDA0F1E4003F
:10590000FFF7F7BF2DE9F04106460D461746C2B135
:1059100001F0C1F880F0010313F0FF0403D03368F5
:1059200030461B68984705EB070815F8011B304601
:10593000FFF72FFEA845F8D11CB1336830465B68ED
:1059400098473846BDE8F081A0F1E400FFF7DABFE0
:1059500038B504460D4662B103681B689847204677
:10596000FFF714FE2870236820465B6898470120E3
:1059700038BD1046FCE7A0F1E400FFF7E9BF0000E6
:1059800010B50446FFF70CFD034B23603C33C4F80D
:10599000E430204610BD00BF787D0108704700004C
:1059A000EFF3108372B6054A117831B90449DB432D
:1059B00003F001030B70012313707047C02B00200C
:1059C000C12B002008B5EFF31083DB4313F0010374
:1059D00004D006490648362200F0A0FF054A13709D
:1059E000054B1B7803B162B608BD00BF18680108FB
:1059F00034680108C02B0020C12B0020014B18780F
:105A0000704700BFC02B002070B50E4604461546F7
:105A100002F00AF9013609D02046002102F028F9E7
:105A200029462046BDE8704002F01EB970BDF8B5A9
:105A30000F46044615461E4602F0F6F8013710D010
:105A400020685EB1A36818600121204602F010F9B9
:105A500029462046BDE8F84002F006B9E368000494
:105A6000F1E7F8BD13460022FFF7E1BF0022FFF780
:105A7000F9BF2DE9F0411746069E04460D461A4629
:105A800067B9FFF7C1FF013503D022681EB1A368D3
:105A90001A60BDE8F081E3681204F9E73346BDE817
:105AA000F041FFF7C4BF000013B50446601C0FD1DE
:105AB00002B010BDA3420AD12046896802F08EFCD4
:105AC0000021204602B0BDE8104002F017BD0C31A5
:105AD000B1F900305A1CEDD100230349034800936B
